:0B09D800543A0054483A00544C3A00D6
:10046D0012098C12091F7BFF7A0979D87D017F0152
:10047D0012080D1209A07FE87E03120978E4FF121D
:10048D0007818F1B7F011207818F197BFF7A0979F5
:10049D00DB7D017F0212080D7BFF7A0979DF7D0973
:1004AD007F0212080DE51BFB3395E0FA750C037DF9
:1004BD00047F0212066AE519FB3395E0FA750C0309
:1004CD007D0C7F0212066AD3E51B648094FD5014E7
:1004DD00E5196480F8E51B6480984008E51964808F
:1004ED0094495006751B147519F1120A0A8F1A12C8
:1004FD0009A01207B48F188E178D168C15E4FFFE08
:10050D00FDFCAB18AA17A916A8151201B4501E7B35
:10051D002D7D037F011209EDAF18AE17AD16AC1589
:10052D0012022D8F188E178D168C1580097B2B7D41
:10053D00037F011209EDAF18AE17AD16AC151202FF
:10054D007CAB07AA06750C037D047F011208AC7BFA
:10055D002E7D077F011209ED7F007E407D1C7C46BC
:10056D00AB18AA17A916A81512000E12027CE47B6F
:10057D00107A27F9F81203CD750C047D087F01124E
:10058D0008ACE51AB4010E051BD3E51B648094FD80
:10059D004003751B7DE51AB40209151BE51BB51942
:1005AD0002051BE51AB403090519E519B51B02155A
:1005BD0019E51AB4040E1519C3E519648094495050
:1005CD00037519C9E51BFB3395E0FA750C037D0422
:1005DD007F0212066AE519FB3395E0FA750C037D6F
:1005ED000C7F0212066AAD1BE4FF1208307F057EF8
:1005FD0000120978AD197F011208307F057E0012B7
:05060D0009780204F76A
:03000B00020612D8
:10061200C0E0C0F0C083C082C0D075D000C000C0AE
:0D06220001C002C003C004C005C006C0072F
:10062F00758A18758CFC0514E51470020513C394B4
:10063F0014E513940040097513007514001206DDBC
:10064F00D007D006D005D004D003D002D001D000FF
:0B065F00D0D0D082D083D0F0D0E032A9
:10097800EF4E600F7D027CC7DCFEDDFCEF1F70F0E0
:030988001E80EDE1
:01098B002249
:0609B100C2A58F80D2A751
:0809B7007F027EEFDEFEDFFC93
:0109BF002215
:0A09E300C2A61209B1C2A70209B7AB
:10085200CFCDCFCECCCE12033C7C007D0A12033C1E
:04086200ED2430FF52
:0A086600D2A61209B1C2A70209B719
:10093600AE07BE0104ED148006BE0209ED243F4455
:0609460080FF1209E3220C
:10098C007F381209E37F0C1209E37F061209E37F1B
:04099C00010209E368
:0A09ED00AC03120936AF04020866DD
:06080D008B088A09890A2C
:10081300120936E4FDAB08AA09A90A8D8275830083
:0C0823001202FDFF60061208660D80E95D
:01082F0022A6
:0C074E007F0AEA24FFFDE434FFFC7E007B
:08075A008E0F8F108C118D121F
:100762007F017E00E4FBEBC39512E5116480F8740F
:0E0772008098500AAC0FAD1012032A0B80E8DD
:010780002256
:0408AC008A0A8B0B1E
:1008B000120936AA0CEAD39400400D12074EAC0A76
:0808C000AD0B1208521A80ED85
:0108C800220D
:10066A00120936C3EA64809480400B7F2B12086615
:10067A008A0D8B0E800E7F2D120866C3E49BF50E41
:10068A00E49AF50DAA0CEAD39400400D12074EAC79
:09069A000DAD0E1208521A80ED9C
:0106A3002234
:0406A4008A1E8B1F00
:1006A800120936AA20EAD3940040297F1012075075
:1006B800AC1EAD1FCFCDCFCECCCE12033CEF540F26
:1006C800FEC3940AEE5004243080022437FF120837
:0406D800661A80D14D
:0106DC0022FB
:040716008A238B2483
:10071A00120936AA25EAD394004028EA24FFFDE408
:10072A0034FFFC7F027E0012075AAC23AD24CFCDE2
:10073A00CFCECCCE12033CEF54012430FF12086610
:03074A001A80D240
:01074D002289
:100830008F088D09120A017FA01207E41209C0AFC8
:10084000081207E41209C0AF091207E41209C00236
:020850000003A3
:020781008F08DF
:10078300E4F509120A017FA01207E41209C0AF08B9
:100793001207E41209C0120A017FA11207E4120929
:1007A300C01208708F097F011209F7120003AF0905
:0107B3002223
:090A0100D2A0D2A1C2A0C2A12220
:07000300C2A0D2A1D2A0228D
:0207E400AD075F
:1007E600E4FB74807E00A803088006CEA2E713CE41
:1007F60013D8F8FFEDF582EF558224FF92A0D2A11F
:06080600C2A10BBB08DCDF
:01080C0022C9
:10087000E4FFFED2A0D2A130A00D7480A8060880AB
:0D08800002C313D8FC4207C2A10EBE08E857
:01088D002248
:0A09F700EF24FF92A0D2A1C2A122BA
:0B09C000E4D2A0D2A1A2A033FFC2A18C
:0109CB002209
:10088E00E4FFC2AFD2B7C2B77EF7DEFED2B77E2785
:0D089E00DEFEA2B7E433FF7EF7DEFED2AF30
:0108AB00222A
:10094C00C2AFC2B77E04DEFEEF24FF92B77E18DE84
:05095C00FED2B7D2AF8E
:010961002273
:10090300C2AFC2B77F02DFFED2B77F02DFFEA2B75C
:0B091300E433FE7F18DFFED2AFAF061A
:01091E0022B6
:0408C900AD07AC06C5
:1008CD00E4FBAF057401A803088002C333D8FC5FB5
:0808DD00FF12094C0BBB08EAF5
:0108E50022F0
:1008E600E4FDFC120903EF600D7401A80408800200
:0C08F600C333D8FC42050CBC08E9AF0578
:0109020022D2
:1009A00012088E7FCC7E001208C97F447E000208A8
:0109B000C97D
:1007B40012088E7FCC7E001208C97FBE7E0012080C
:1007C400C91208E68F081208E6EFFEE508FFFDAC43
:0F07D40006E4120243E4FBFA7980784112011720
:0107E30022F3
:050A0A00E4AF28F5280F
:010A0F0022C4
:10096200E4FF20B1010F20B0027F0220B2027F0318
:0509720020B3027F0428
:01097700225D
:1006DD008526271209628F26E527B40107E52670C6
:1006ED0003752801E527B40207E526700375280276
:1006FD00E527B40307E5267003752803E527B40441
:08070D0007E5267003752804BE
:0107150022C1
:10091F005389F0438901758A18758CFCC28DD28C6E
:07092F00D2A9D2AFC2B92228
:10000E00EC4D6011E8497017ED33EC3304600DE4EC
:10001E00FCFFFEFD22E933E8330470F80202E81219
:10002E0002B358046009E4CC24815006285009021A
:10003E0002F22840030202EFC0E0EB4A7044B9809E
:10004E0006D0E0FB0202DEEF4E701CBD8008EBFF17
:10005E00EAFEE9FD80EBE98DF0A4FEE5F00200F783
:10006E00E9CDF9EAFEEBFFEF89F0A4FCE5F0CE89CD
:10007E00F0A42EFFE435F0CD89F0A42DFEE435F08A
:10008E008067EF4E7005BD80D780C3EF8BF0A4ACB8
:10009E00F0EE8BF0A42CFCE435F0F8EF8AF0A42CF3
:1000AE00E5F038FCE433CB8DF0A42CFCE5F03BF806
:1000BE00EE8AF0A42CFCE5F038F8E433CF89F0A4F6
:1000CE002CFCE5F038CF3400CE89F0A42FFFE5F0FC
:1000DE003EFEE433C98DF0A42EFEE5F039CD8AF054
:1000EE00A42FFFE5F03EFEE43DFD33D0E0FB5007CC
:1000FE000BBB000F0202F2EC2CFCEF33FFEE33FED3
:06010E00ED33FD0202CA00
:100114000202F2EC5D046005E8590470030202E88F
:100124001202B3580460F6EC4860F2EC7004FDFE71
:10013400FF22C860DB2481C85009C39860025006BE
:100144000202EF9850CAF582E9294B4A7005AB8246
:100154000202DE75F0007C1A7880C3EF9BEE9AED04
:1001640099400DC3EF9BFFEE9AFEED99FDE842F036
:10017400DC23ACF0D0E0FFD0E0FED0E0FDAB822089
:10018400E7101BEB60BAEC2CFCEF33FFEE33FEED13
:1001940033FD0202CAE803F830E705C0F075F00049
:1001A400EF2FFFEE33FEED33FD40B830E7C280AAF7
:1001B40074F8CC6480CCC86480C8F58204604FC3F2
:1001C400EB9FF5F0EA9E42F0E99D42F0E89C45F091
:1001D400603C501DE5825FFFE582D313CB5BCBF41B
:1001E4002B5582FB50280ABA002409B90020088044
:1001F4001DE5825BFBE582D313CF5FCFF4C3132FDE
:100204005582FF50090EBE00050DBD00010CC3EB65
:100214009FF5F0EA9E42F0E99D42F0E89C45F060CB
:0902240007CC4820E701B3EC22ED
:10022D00ED33EC33600A047003BD8004ECB2E7FCDF
:01023D00229E
:10023E0075F020800E75F010800575F0087D007E3B
:10024E00007F003392D530D50312045FEC3340109B
:10025E00EF33FFEE33FEED33FDEC33FCD5F0ED2244
:0E026E00E5F0247EA2D513CC92E7CDCEFF2280
:10027C00EDD2E7CD33EC3392D524814006E4FFFE7A
:10028C00FDFC22FCE4CFCECDCC24E0501174FF80D9
:10029C00EDC3CC13CCCD13CDCE13CECF13CF047076
:0702AC00F030D5DE02045F13
:1002B300E9D2E7C933E833F892D5EDD2E7CD33EC91
:0702C30033FC5002B2D5220A
:1002CA00EC30E7100FBF000C0EBE00080DBD000495
:1002DA000BEB6014A2D5EB13FCED92E7FD2274FF41
:1002EA00FCFDFEFF22E480F8A2D574FF13FC7D809A
:0302FA00E480EFAE
:030000000209CC26
:0C09CC00787FE4F6D8FD75812802046DE8
:1002FD00BB010CE58229F582E5833AF583E02250B6
:10030D0006E92582F8E622BBFE06E92582F8E222FF
:0D031D00E58229F582E5833AF583E4932219
:10032A00EF8DF0A4A8F0CF8CF0A428CE8DF0A42EE7
:02033A00FE22A1
:10033C00BC000BBE0029EF8DF084FFADF022E4CCA5
:10034C00F875F008EF2FFFEE33FEEC33FCEE9DEC6E
:10035C00984005FCEE9DFE0FD5F0E9E4CEFD22EDB4
:10036C00F8F5F0EE8420D21CFEADF075F008EF2FFE
:10037C00FFED33FD4007985006D5F0F222C398FDEF
:05038C000FD5F0EA228C
:1003910075F008758200EF2FFFEE33FECD33CDCC23
:1003A10033CCC58233C5829BED9AEC99E5829840A6
:1003B1000CF582EE9BFEED9AFDEC99FC0FD5F0D683
:1003C100E4CEFBE4CDFAE4CCF9A88222B800C1B9AD
:1003D1000059BA002DEC8BF084CFCECDFCE5F0CBEB
:1003E100F97818EF2FFFEE33FEED33FDEC33FCEB24
:1003F10033FB10D703994004EB99FB0FD8E5E4F9DF
:10040100FA227818EF2FFFEE33FEED33FDEC33FCCB
:10041100C933C910D7059BE99A4007EC9BFCE99ABF
:10042100F90FD8E0E4C9FAE4CCFB2275F010EF2F04
:10043100FFEE33FEED33FDCC33CCC833C810D70704
:100441009BEC9AE899400AED9BFDEC9AFCE899F83F
:0E0451000FD5F0DAE4CDFBE4CCFAE4C8F922D2
:0E045F00C3E49FFFE49EFEE49DFDE49CFC22AE
:00000001FF
