:1008EC0020200020202D20202D20200020203A2008
:0508FC00203A2020005D
:10058500120444E51EFB3395E0FA750C027D017FEC
:10059500011208A2E51FFB3395E0FA750C027D04F4
:1005A5007F011208A2E520FB3395E0FA750C027D68
:1005B500077F011208A2E521FB3395E0FA750C02CD
:1005C5007D017F021208A2E522FB3395E0FA750C46
:1005D500027D047F021208A2E523FB3395E0FA753C
:0905E5000C027D077F020208A24E
:10000E00E51CB4020B051BE51B75F0068485F01B81
:10001E00E51C640360030200E8741E251BF806D37A
:10002E00E51E648094E34003E4F51ED3E51F64806F
:10003E00948C4003751F01E51F64016023E51F6466
:10004E0003601DE51F64056017E51F64076011E579
:10005E001F6408600BE51F640A6005E51FB40C0BF6
:10006E00D3E5206480949F404D8048E51F64046072
:10007E0011E51F6406600BE51F64096005E51FB4FA
:10008E000B0BD3E5206480949E402B8026E51FB495
:10009E000224E51E75F00412038EAFF0EF700BD341
:1000AE00E5206480949D400E8009D3E52064809401
:1000BE009C4003752001D3E521648094974003E4AE
:1000CE00F521D3E522648094BB4003E4F522D3E509
:1000DE0023648094BB4003E4F523E51C64046003B1
:1000EE000201D1741E251BF816C3E51E6480948090
:1000FE005003751E63C3E51F648094815003751F02
:10010E000CE51F64016023E51F6403601DE51F6499
:10011E00056017E51F64076011E51F6408600BE5B5
:10012E001F640A6005E51FB40C0EC3E520648094BD
:10013E0081506C75201F8067E51F64046011E51FF8
:10014E006406600BE51F64096005E51FB40B0EC362
:10015E00E52064809481504775201E8042E51F641F
:10016E0002703CE51E75F00412038EAFF0EF7017AF
:10017E00C3E52064809481500375201DD3E520646F
:10018E0080949D401A8015C3E520648094815003AD
:10019E0075201CD3E5206480949C4003752001C318
:1001AE00E52164809480500375213BC3E522648071
:1001BE009480500375223BC3E523648094805003E2
:1001CE0075233BE51B7014E51DB4010F7BFF7A0808
:1001DE0079EC7D017F01120861800EE51EFB3395DF
:1001EE00E0FA7D017F011208A2E51BB40114E51DA2
:1001FE00B4010F7BFF7A0879EC7D047F0112086150
:10020E008011E51FFB3395E0FA750C027D047F012A
:10021E001208A2E51BB40214E51DB4010F7BFF7A90
:10022E000879EC7D077F011208618011E520FB3310
:10023E0095E0FA750C027D077F011208A2E51BB44A
:10024E000314E51DB4010F7BFF7A0879EC7D017F65
:10025E00021208618011E521FB3395E0FA750C025C
:10026E007D017F021208A2E51BB40414E51DB40142
:10027E000F7BFF7A0879EC7D047F021208618011F2
:10028E00E522FB3395E0FA750C027D047F0212081D
:10029E00A2E51BB40514E51DB4010F7BFF7A0879A6
:1002AE00EC7D077F021208618011E523FB3395E098
:0E02BE00FA750C027D077F021208A20202CC24
:10064F001209151200031208BF7BFF7A0879EF7D9C
:10065F00017F011208617BFF7A0879F87D017F0223
:10066F001208611202CC1205EE8F1CE51CB40116A4
:10067F00E51AB40107E4F51AF51B800AE51A7006AE
:10068F00751A011202CCE51A60081470D912000E07
:07069F0080D412058580CF15
:03000B000207BE2B
:0907BE00C0E0C0D075D000C007F6
:1007C700758A66758CFC0519E51970020518B4E879
:1007D70017E518B40312751800751900E51D7004A4
:0807E7007F0180027F008F1DDD
:0707EF00D007D0D0D0E032AA
:08094C00061E17031E0C3B3BC5
:05000300C2B5C2B622E7
:0206A600A907A2
:1006A800E4FBD2B574017E00A803088005C333CEED
:1006B80033CED8F9FFE9F582EF558224FF92B4D200
:1006C800B6C2B60BBB08DDE4FB74017E00A80308C4
:1006D8008005C333CE33CED8F9FFEDF5823395E0EC
:1006E8005EFEEF55824E24FF92B4D2B6C2B60BBB63
:0406F80008D7C2B5A8
:0106FC0022DB
:0206FD00AD0747
:1006FF00E4FBF9430501D2B574017E00A80308801D
:10070F0005C333CE33CED8F9FFEDF582EF558224F2
:10071F00FF92B4C2B6D2B60BBB08DDE4FBD2B6C2B1
:10072F00B630B40D7401A803088002C333D8FC425D
:0B073F00010BBB08E8C2B5C2B4AF015B
:01074A00228C
:1002CC00E4FD7F8E1206A6E51E75F00A12038EC49D
:1002DC0054F0FFE51E75F00A12038EAEF0EF2EFD02
:1002EC007F8C1206A6E51F75F00A12038EC454F01B
:1002FC00FFE51F75F00A12038EAEF0EF2EFD7F881E
:10030C001206A6E52075F00A12038EC454F0FFE520
:10031C002075F00A12038EAEF0EF2EFD7F861206CA
:10032C00A6E52175F00A12038EC454F0FFE5217581
:10033C00F00A12038EAEF0EF2EFD7F841206A6E5B6
:10034C002275F00A12038EC454F0FFE52275F00AF0
:10035C0012038EAEF0EF2EFD7F821206A6E52375FA
:10036C00F00A12038EC454F0FFE52375F00A120351
:10037C008EAEF0EF2EFD7F801206A67D807F8E0262
:02038C0006A6C3
:100444007F8C1206FDEF75F01012038E75F00AA46E
:10045400FEEF75F01012038EAFF0EE2FF51E7F88BD
:100464001206FDEF75F01012038E75F00AA4FEEF6C
:1004740075F01012038EAFF0EE2FF51F7F86120673
:10048400FDEF75F01012038E75F00AA4FEEF75F0FF
:100494001012038EAFF0EE2FF5207F841206FDEFCD
:1004A40075F01012038E75F00AA4FEEF75F01012A9
:1004B400038EAFF0EE2FF5217F821206FDEF75F06B
:1004C4001012038E75F00AA4FEEF75F01012038E5D
:1004D400AFF0EE2FF5227F801206FDEF75F01012BB
:1004E400038E75F00AA4FEEF75F01012038EAFF0C0
:0404F400EE2FF523CF
:0104F80022E1
:10090100EF4E600F7D027CC7DCFEDDFCEF1F70F057
:030911001E80ED58
:0109140022C0
:1005EE00E4F50820B1137F14FE12090130B1FD7F2E
:1005FE00147E0012090175080120B0147F147E00CC
:10060E0012090130B0FD7F147E0012090175080237
:10061E0020B2147F147E0012090130B2FD7F147EC9
:10062E000012090175080320B3147F147E0012090D
:10063E000130B3FD7F147E00120901750804AF0866
:01064E002289
:06092900C2A58F80D2A7D9
:08092F007F027EEFDEFEDFFC1B
:01093700229D
:0A093800C2A6120929C2A702092F66
:10088400CFCDCFCECCCE1203EF7C007D0A1203EF86
:04089400ED2430FF20
:0A089800D2A6120929C2A702092FF7
:1008D600AE07BE0104ED148006BE0209ED243F44B6
:0608E60080FF1209382218
:100915007F381209387F0C1209387F061209387F93
:04092500010209388A
:0A094200AC031208D6AF04020898B7
:060861008B088A09890AD8
:100867001208D6E4FDAB08AA09A90A8D8275830090
:0C0877001203B0FF60061208980D80E923
:010883002252
:0C082E007F0AEA24FFFDE434FFFC7E009A
:08083A008E0D8F0E8C0F8D1046
:100842007F017E00E4FBEBC39510E50F6480F87432
:0E0852008098500AAC0DAD0E1203DD0B80E84D
:010860002275
:0408A2008A0A8B0B28
:1008A6001208D6AA0CEAD39400400D12082EAC0A00
:0808B600AD0B1208841A80ED5D
:0108BE002217
:10074B001208D6C3EA64809480400B7F2B12089862
:10075B008A168B17800E7F2D120898C3E49BF51712
:10076B00E49AF516AA15EAD39400400D12082EACA4
:09077B0016AD171208841A80ED76
:010784002252
:040785008A268B270E
:100789001208D6AA28EAD3940040297F101208300B
:10079900AC26AD27CFCDCFCECCCE1203EFEF540F81
:1007A900FEC3940AEE5004243080022437FF120855
:0407B900981A80D139
:0107BD002219
:0407F6008A2B8B2C93
:1007FA001208D6AA2DEAD394004028EA24FFFDE481
:10080A0034FFFC7F027E0012083AAC2BAD2CCFCD10
:10081A00CFCECCCE1203EFEF54012430FF1208984A
:03082A001A80D25F
:01082D0022A8
:1008BF005389F0438901758A66758CFCC28DD28C81
:0708CF00D2A9D2AFC2B92289
:030000000204F9FE
:0C04F900787FE4F6D8FD75812D020540E7
:10038E00C2D530F707B2D563F0FF05F030E70CB2F7
:10039E00D5F4048463F0FF05F080018430D502F4B7
:0203AE00042227
:1003B000BB010CE58229F582E5833AF583E0225002
:1003C00006E92582F8E622BBFE06E92582F8E2224C
:0D03D000E58229F582E5833AF583E4932266
:1003DD00EF8DF0A4A8F0CF8CF0A428CE8DF0A42E34
:0203ED00FE22EE
:1003EF00BC000BBE0029EF8DF084FFADF022E4CCF2
:1003FF00F875F008EF2FFFEE33FEEC33FCEE9DECBB
:10040F00984005FCEE9DFE0FD5F0E9E4CEFD22ED00
:10041F00F8F5F0EE8420D21CFEADF075F008EF2F4A
:10042F00FFED33FD4007985006D5F0F222C398FD3B
:05043F000FD5F0EA22D8
:1005050002064FE493A3F8E493A34003F68001F2B7
:1005150008DFF48029E493A3F85407240CC8C333F7
:10052500C4540F4420C8834004F456800146F6DFC6
:10053500E4800B010204081020408090094CE47E01
:10054500019360BCA3FF543F30E509541FFEE493BB
:10055500A360010ECF54C025E060A840B8E493A382
:10056500FAE493A3F8E493A3C8C582C8CAC583CAAD
:10057500F0A3C8C582C8CAC583CADFE9DEE780BE65
:0109540000A2
:00000001FF
