:10000E001203B41204078F27E527B4010CE52670FE
:10001E00047F0180027F008F26E527B40207E4F5F6
:10002E0025F524F528E52764037029AD25FF120375
:10003E003E7F057E001203CBAD247F0112033E7F6F
:10004E00057E001203CBAD287F0212033E7F057E94
:10005E00001203CBE527B40415E4FF1202938F259B
:10006E007F011202938F247F021202938F28E525BF
:10007E0075F00A84FD7C007F011203FEE52575F004
:10008E000A84E5F0FD7C007F021203FE7D0B7C00EE
:10009E007F031203FEE52475F00A84FD7C007F04C5
:1000AE001203FEE52475F00A84E5F0FD7C007F0561
:1000BE001203FE7D0B7C007F061203FEE52875F011
:1000CE000A84FD7C007F071203FEE52875F00A8482
:0D00DE00E5F0FD7C007F081203FE0200111A
:1002C600E52660240528E528D39463401B0524E42D
:1002D600F528E524D3943B400FE4F5240525E525D0
:0902E600D3943B4003E4F525220A
:03000B0002017778
:10017700C0E0C0F0C083C082C0D075D000C000C04E
:0D01870001C002C003C004C005C006C007CF
:10019400758A66758CFC051FE51F7002051E6414C4
:1001A400451E7007F51EF51F12025A0521E5217040
:1001B400020520640245207007F520F52112037E14
:1001C4000523E52370020522640A45227007F522FF
:0501D400F5231202C634
:1001D900D007D006D005D004D003D002D001D0007A
:0B01E900D0D0D082D083D0F0D0E03224
:0903F500D2A0D2A1C2A0C2A12233
:07000300C2A0D2A1D2A0228D
:0202EF00AD0759
:1002F100E4FB74807E00A803088006CEA2E713CE3B
:1003010013D8F8FFEDF582EF558224FF92A0D2A118
:06031100C2A10BBB08DCD9
:0103170022C3
:10036000E4FFFED2A0D2A130A00D7480A8060880C0
:0D03700002C313D8FC4207C2A10EBE08E86C
:01037D00225D
:0A03EB00EF24FF92A0D2A1C2A122CC
:0B03DF00E4D2A0D2A1A2A033FFC2A173
:0103EA0022F0
:10033E008F2C8D2D1203F57FA01202EF1203DFAF6B
:10034E002C1202EF1203DFAF2D1202EF1203DF02A7
:02035E0000039A
:020293008F2CAE
:10029500E4F52D1203F57FA01202EF1203DFAF2C58
:1002A5001202EF1203DF1203F57FA11202EF120310
:1002B500DF1203608F2D7F011203EB120003AF2DB8
:0102C5002216
:1003CB00EF4E600F7D027CC7DCFEDDFCEF1F70F093
:0303DB001E80ED94
:0103DE0022FC
:100318000909000A0A0A0A0A0A0A0A0C123F065BB5
:0C0328004F666D7D077F6F0040010801EB
:0903FE00AE0574092FF8A60622D1
:1001F400E4F580EF14B40800505490020C75F00339
:10020400A4C58325F0C583730202240202280202D6
:100214002C02023002023402023C02024402024C6A
:10022400D2A4800ED2A48012D2A48016D2A4801AA2
:10023400C2A4D2A3D2A28016C2A4D2A3C2A2800E08
:10024400C2A4C2A3D2A28006C2A4C2A3C2A2741230
:060254002DF8E6F5802202
:10037E0074092508F8E6FD7C00AF081201F40508A3
:0A038E00E508C39409400375080157
:010398002242
:1003B4005389F0438901758A66758CFCC28DD28C91
:0703C400D2A9D2AFC2B92299
:09033400012900012A00012B003F
:05040700AF29E4F52916
:01040C0022CD
:1003990020B1037F012220B0037F022220B2037F14
:0B03A900032220B3037F04227F002208
:10025A00852B2A1203998F2BE52B7008E52AB40106
:10026A0003752901E52B7008E52AB40203752902F2
:10027A00E52B7008E52AB40303752903E52B7008FA
:09028A00E52AB4040375290422DD
:030000000200EB10
:0C00EB00787FE4F6D8FD75812D0201320B
:1000F70002000EE493A3F8E493A34003F68001F211
:1001070008DFF48029E493A3F85407240CC8C33309
:10011700C4540F4420C8834004F456800146F6DFD8
:10012700E4800B0102040810204080900318E47E4D
:10013700019360BCA3FF543F30E509541FFEE493CD
:10014700A360010ECF54C025E060A840B8E493A394
:10015700FAE493A3F8E493A3C8C582C8CAC583CABF
:10016700F0A3C8C582C8CAC583CADFE9DEE780BE77
:01033D0000BF
:00000001FF
