:03036E00010D037B
:10000E001202BE750A19750B1920A23030A32D30BD
:10001E00B42A30B52730B624750A0F750C0F750B40
:10002E0019750E1920A0FD20A1FA30A2F730A3F405
:10003E0030B4F130B5EE20B6EB20B7E830A1303059
:10004E00A22D30A32A30B42720B524750A19750CB9
:10005E0019750B0F750E0F20A0FD20A1FA30A2F717
:10006E0030A3F430B4F130B5EE20B6EB20B7E83063
:10007E00A02D30A12A30A22730A324750A19750CA1
:10008E0019750B05750E0520A0FD20A1FA30A2F7FB
:10009E0030A3F430B4F130B5EE20B6EB20B7E83033
:1000AE00B42D30B52A30B62730B724750A05750C35
:1000BE0005750B19750E1920A0FD20A1FA30A2F7B7
:1000CE0030A3F430B4F130B5EE20B6EB20B7E83003
:1000DE00A21C30A31930B41630B51330B61030B799
:1000EE000D1203017F647E001202D51202E930A0C8
:1000FE001C30A11930A21630A31330B41030B50D38
:10010E001203017F647E001202D512032530A04334
:10011E0030A14030A23D30A33A30B43730B5343040
:10012E00B63130B72E7F647E001202D520A0242077
:10013E00A12120A21E20A31B20B41820B51520B685
:10014E001220B70F1203017FD07E071202D5D50DF4
:10015E000280FE30860302001712030D750A197510
:10016E000C197FF47E011202D5120319750B197545
:10017E000E1920A0FD20A1FA30A2F730A3F430B45E
:10018E00F130B5EE20B6EB20B7E812032E750B1941
:0C019E00750E19750A19750C190200176E
:03000B00020236B8
:0F023600C0E0C0D075D000C004C005C006C0072E
:10024500758AD7758CFD0509E50970020508646492
:100255004508701CF508F509050CE50CD3950A4011
:1002650003850A0C050EE50ED3950B4003850B0E91
:10027500AF0C7E00C3E5099FE5089E4004C280C21D
:1002850090AD0E7C00C3E5099DE5089C4004C28540
:10029500C295C3E5099FE5089E5004D280D290C35C
:0C02A500E5099DE5089C5004D285D29527
:0D02B100D007D006D005D004D0D0D0E03268
:1002BE005389F0438901758AD7758CFDC28DD28C16
:0702CE00D2A9D2AFC2B92290
:05000300C281D282223F
:05033700C291D29222E8
:05033C00C283D28422FF
:05034100C293D29422DA
:05034600D281C28222F9
:05034B00D291C29222D4
:05035000D283C28422EB
:05035500D293C29422C6
:05035A00C281C28222F5
:05035F00C291C29222D0
:05036400C283C28422E7
:05036900C293C29422C2
:09032500120003120350020355FB
:0C02E90012033C12034112034602034BB7
:09032E0012000312033702033C24
:0C02F50012034612034B12035002035583
:0C03010012035A12035F12036402036926
:0C030D001200031203371203640203699C
:0C03190012033C12034112035A02035F5E
:1002D500EF4E600F7D027CC7DCFEDDFCEF1F70F08A
:0302E5001E80ED8B
:0102E80022F3
:030000000201AA50
:0C01AA00787FE4F6D8FD75810E0201F1AB
:1001B60002000EE493A3F8E493A34003F68001F251
:1001C60008DFF48029E493A3F85407240CC8C3334A
:1001D600C4540F4420C8834004F456800146F6DF19
:1001E600E4800B010204081020408090036EE47E38
:1001F600019360BCA3FF543F30E509541FFEE4930E
:10020600A360010ECF54C025E060A840B8E493A3D4
:10021600FAE493A3F8E493A3C8C582C8CAC583CAFF
:10022600F0A3C8C582C8CAC583CADFE9DEE780BEB7
:01037100008B
:00000001FF
