:0B03000041444A004E544300475200A5
:100097001202D17BFF7A0379007D017F01120248AA
:1000A7007BFF7A0379047D057F011202487BFF7A83
:1000B7000379087D097F011202487F9C12010F8E88
:1000C700228F23750C03AB23AA227D017F02120224
:1000D700897FDC12010F8E228F23750C03AB23AAB5
:1000E700227D057F021202897FAC12010F8E228FBB
:1000F70023750C03AB23AA227D097F021202897F95
:08010700647E001202BC80B20C
:02010F00AD073A
:10011100E4F508F509D2B5C2B6C2B5FB74807E001C
:10012100A803088006CEA2E713CE13D8F8FFEDF599
:1001310082EF558224FF92B4D2B6C2B60BBB08DC63
:10014100E4FBD2B6C2B630B714E47E80A8030880BF
:1001510005CEC313CE13D8F94209EE42080BBB10EA
:08016100E1D2B5E508FF7E00C4
:010169002273
:1002BC00EF1FAC0670011E4C600A7D027CEFDCFE69
:0402CC00DDFC80ECE9
:0102D000220B
:0602E500C2A58F80D2A724
:0802EB007F027EEFDEFEDFFC66
:0102F30022E8
:0A030B00C2A61202E5C2A70202EB2F
:10026B00CFCDCFCECCCE1200427C007D0A12004205
:04027B00ED2430FF3F
:0A027F00D2A61202E5C2A70202EBAC
:1002A600AE07BE0104ED148006BE0209ED243F44EC
:0602B60080FF12030B2281
:1002D1007F3812030B7F0C12030B7F0612030B7F77
:0402E1000102030B08
:0A031500AC031202A6AF0402027F3F
:060248008B088A09890AF7
:10024E001202A6E4FDAB08AA09A90A8D82758300E5
:0C025E00120003FF600612027F0D80E911
:01026A002271
:0C0215007F0AEA24FFFDE434FFFC7E00B9
:080221008E0D8F0E8C0F8D1065
:100229007F017E00E4FBEBC39510E50F6480F87451
:0E0239008098500AAC0DAD0E1200300B80E81C
:010247002294
:040289008A0A8B0B47
:10028D001202A6AA0CEAD39400400D120215AC0A74
:08029D00AD0B12026B1A80ED9B
:0102A5002236
:10016A001202A6C3EA64809480400B7F2B12027F9E
:10017A008A168B17800E7F2D12027FC3E49BF51718
:10018A00E49AF516AA15EAD39400400D120215ACAA
:09019A0016AD1712026B1A80ED7C
:0101A3002239
:0401A4008A1A8B1B0D
:1001A8001202A6AA1CEAD3940040297F1012021753
:1001B800AC1AAD1BCFCDCFCECCCE120042EF540F30
:1001C800FEC3940AEE5004243080022437FF120242
:0401D8007F1A80D139
:0101DC002200
:0401DD008A1F8B20CA
:1001E1001202A6AA21EAD394004028EA24FFFDE4E2
:1001F10034FFFC7F027E00120221AC1FAD20CFCD67
:10020100CFCECCCE120042EF54012430FF12027F38
:030211001A80D27E
:0102140022C7
:030000000202F405
:0C02F400787FE4F6D8FD758123020097A6
:10000300BB010CE58229F582E5833AF583E02250B2
:1000130006E92582F8E622BBFE06E92582F8E222FC
:0D002300E58229F582E5833AF583E4932216
:10003000EF8DF0A4A8F0CF8CF0A428CE8DF0A42EE4
:02004000FE229E
:10004200BC000BBE0029EF8DF084FFADF022E4CCA2
:10005200F875F008EF2FFFEE33FEEC33FCEE9DEC6B
:10006200984005FCEE9DFE0FD5F0E9E4CEFD22EDB1
:10007200F8F5F0EE8420D21CFEADF075F008EF2FFB
:10008200FFED33FD4007985006D5F0F222C398FDEC
:050092000FD5F0EA2289
:00000001FF
