:10000E00120163D280D290C281C291D282D292D298
:10001E0085D295C283C293D284D2942086FDC280AB
:10002E00C290C285C2957FFA7E0012017AD283D227
:10003E0093C284C294E4F50A7FEE7E0212017AC264
:10004E0080C290C285C2957FFA7E0012017AC2816B
:10005E00C291D282D292C283C293D284D2947FF4BE
:10006E007E0112017AC280C290C285C2957FC27E85
:10007E000112017AD281D291C282C292C283C293FC
:10008E00D284D294E4F50A7F847E0312017AC28070
:10009E00C290C285C2957FFA7E0012017AC281C2D9
:1000AE0091D282D292C283C293D284D2947F7E7E28
:1000BE000412017AC280C290C285C2957FFA7E0078
:1000CE0012017AD283D293C284C294E4F50A7FF4E9
:1000DE007E0112017AC280C290C285C2957F5E7E79
:1000EE000112017AC281C291D282D292C283C2938C
:0700FE00D284D29402002914
:03000B00020105EA
:0B010500C0E0C0D075D000C006C007ED
:10011000758AD7758CFD0509E509700205086464C8
:1001200045087010F508F509050AE50AD394194049
:1001300003750A19AF0A7E00C3E5099FE5089E40D2
:1001400008C280C290C285C295C3E5099FE5089E9A
:0A0150005008D280D290D285D295DB
:09015A00D007D006D0D0D0E0326D
:10017A00EF4E600F7D027CC7DCFEDDFCEF1F70F0E6
:03018A001E80EDE7
:01018D00224F
:100163005389F0438901758AD7758CFDC28DD28C72
:07017300D2A9D2AFC2B922EC
:0300000002018E6C
:0C018E00787FE4F6D8FD75810A02000EAF
:00000001FF
